:020000040000FA
:100000000A128A11E72FFF1B0D2883137F1883170D
:100010000008840A0319FF0A080000308A00040857
:10002000840A82070034013400340A340034643412
:100030000034E834033410342734433465347234E4
:10004000723461346434753472346134203445342C
:1000500065346C3465346334743472346F346E34A4
:10006000693463346134003449346E346734723433
:10007000653473346534203443346C3461347634FD
:1000800065343A34003449346E3463346F34723436
:1000900072346534633474346134003442346C3403
:1000A0006F347134753465346134643461340034D0
:1000B00043346C346134763465343A342034253436
:1000C0006934003443346F347234723465346334C9
:1000D00074346134003443346C34613476346534C0
:1000E00000342A342A342A342A3400345F345F340A
:1000F0005F345F340034433461346A346134003433
:10010000A9341C34F000701C862887288B288312A1
:10011000031308168E28831203130812F01C91286B
:1001200092289428881695288812701D9828992856
:100130009B2808179C280813F01D9F28A028A22898
:100140008817A32888130800F40074080F39F100F9
:100150007108F2007408F039F1007108F30083129D
:10016000031308157308F10004300310F10CFF3E6F
:10017000031DB52871080A128A1182200A128A11F9
:100180008312031388150D30F100F10BC52883127B
:100190000313881172080A128A1182200A128A1126
:1001A0008312031388150D30F100F10BD52883124B
:1001B000031388110800780879040319E028E1285E
:1001C0001029FD01FD0AEF2801300310F80DF90D8B
:1001D000FF3E031DE5280130FC007C08FD07F91FE8
:1001E000F228F328E42879087B02031DF92878080F
:1001F0007A02031CFC28FD2803297808FA027908F2
:10020000031CFB03FB0201300310F90CF80CFF3E4A
:10021000031D04290130FD02031D0F291029F328B5
:100220007B08F9007A08F800080083120313A00085
:10023000F401F40A02300A128A11E2210A128A1128
:10024000831203132008FB00FC017B08F5007C08E7
:10025000F6000A128A15D0270A128A110630FD000C
:100260001330FC00AD30FB00FB0B3429FC0B3429B0
:10027000FD0B34293B290830FB007B08F4000230D9
:100280000A128A11E2210A128A115F30F5008030C9
:10029000F6000A128A15D0270A128A110800F50101
:1002A000F601700871040319562957298E29F701A0
:1002B000F70A652901300310F00DF10DFF3E031D13
:1002C0005B290130F4007408F707F11F68296929D8
:1002D0005A2901300310F50DF60DFF3E031D6A2962
:1002E00071087302031D762970087202031C7929B4
:1002F0007A2981297008F2027108031CF303F302C2
:10030000751401300310F10CF00CFF3E031D82291F
:100310000130F702031D8D298E2969297608F10025
:100320007508F0000800F701F8010230F600C73048
:10033000F5008830F400F40B9B29F50B9B29F60B94
:100340009B2900000A128A155E270A128A110130C1
:10035000F7070318F80A0030F8077808803AFF001A
:1003600080307F02031DB6290F307702031CB929A4
:10037000BA299529F901FA010230F600C730F500D3
:100380008830F400F40BC229F50BC229F60BC22900
:1003900000000A128A156B270A128A110130F90728
:1003A0000318FA0A0030FA077A08803AFF00803012
:1003B0007F02031DDD290F307902031CE029E129AA
:1003C000BC290800F7007703031DE729E8290B2A59
:1003D00074087F3EF5007508FA007A08F5000430CD
:1003E0000310F50CFF3E031DF0297508F600760892
:1003F000F8007A080F39F5007508F90078080A1234
:100400008A1591270A128A1179080A128A159127EA
:100410000A128A11332A02307706031D102A112A84
:10042000332A7408BF3EF5007508FA007A08F50013
:1004300004300310F50CFF3E031D192A7508F60061
:100440007608F8007A080F39F5007508F900780881
:100450000A128A1591270A128A1179080A128A1536
:1004600091270A128A11080000300A128A1182208C
:100470000A128A111A30F500F830F400F40B3E2A03
:10048000F50B3E2A000003300A128A1591270A1242
:100490008A110730F5007D30F400F40B4D2AF50B7E
:1004A0004D2A03300A128A1591270A128A110F3039
:1004B000F5004730F400F40B5B2AF50B5B2A602A49
:1004C00003300A128A1591270A128A1102300A1281
:1004D0008A1591270A128A1102300A128A15912769
:1004E0000A128A1108300A128A1591270A128A11F3
:1004F00000300A128A1591270A128A110C300A124A
:100500008A1591270A128A1100300A128A1591273A
:100510000A128A1106300A128A1591270A128A11C4
:10052000080083120313A001A1010A128A155127A2
:100530000A128A110630FB007B08F40001300A120F
:100540008A11E2210A128A116930F5008030F60022
:100550000A128A15D0270A128A110430FB007B0880
:10056000F40002300A128A11E2210A128A113C3088
:10057000F5008030F6000A128A15D0270A128A1177
:100580008312031307150630FD001330FC00AD3055
:10059000FB00FB0BC92AFC0BC92AFD0BC92AD02A78
:1005A0008312031307110630FD001330FC00AD3039
:1005B000FB00FB0BD92AFC0BD92AFD0BD92AE02A18
:1005C000013083120313A0070318A10A0030A1070A
:1005D0002108803AFF0080307F02031DF12A053098
:1005E0002002031CF42AF52A952A0800643083129D
:1005F0000313C9000030CA00013086000D30F1003D
:10060000FB30F000F00B022BF10B022B072B8312B7
:100610000313061E0C2B0D2B122B0130C9000030CA
:10062000CA00232B861E152B162B1B2B0230C9004C
:100630000030CA00232B061F1E2B1F2B232B033039
:10064000C9000030CA00023086000D30F100FB30D6
:10065000F000F00B292BF10B292B2E2B8312031307
:10066000061E332B342B392B0430C9000030CA004E
:100670004A2B861E3C2B3D2B422B0530C9000030F7
:10068000CA004A2B061F452B462B4A2B0630C900B1
:100690000030CA00043086000D30F100FB30F0005D
:1006A000F00B502BF10B502B552B83120313061E0E
:1006B0005A2B5B2B602B0730C9000030CA00712B0E
:1006C000861E632B642B692B0830C9000030CA00DA
:1006D000712B061F6C2B6D2B712B0930C90000305C
:1006E000CA00083086000D30F100FB30F000F00B3E
:1006F000772BF10B772B7C2B83120313061E812B98
:10070000822B872B2A30C9000030CA00962B861E08
:100710008A2B8B2B8E2BC901CA01962B061F912B7E
:10072000922B962B2330C9000030CA0049080800DC
:1007300083120313AB002130A3002308A600692C09
:1007400025302C060319A52BA62BB22B2C08A300B1
:100750002B0884002308831380000130A3002308A2
:10076000AB07692CA7010130A007FF3020078400E8
:100770000A128A110D200A128A11AC00A300A401EA
:100780002408003A0319C52B692C2308003A0319E1
:100790007B2C643A0319D02B0D3A0319D02B692C0A
:1007A0002608840083130008A900840A0008AA0010
:1007B0000230A3002308A607AA1FDF2BE02BE92B9A
:1007C0000330A3002308A704A909AA09A90A031949
:1007D000AA0AAC01AC0A2C08A3002307013E84003E
:1007E0000A128A110D200A128A11A4000A128A1113
:1007F0000D200A128A11A50025082A02031D022CC9
:10080000240829020318052C062C072C112C013072
:10081000A3002308AC0705302C06031D102C112C57
:10082000EB2B270803390319162C172C222C2D30FB
:10083000A3002B0884002308831380000130A30049
:100840002308AB072C08A3002308A800602C0A305B
:10085000F8000030F9002808A3002307013E8400B7
:100860000A128A110D200A128A11F0000A128A1146
:100870000D200A128A11F1002A08F3002908F2005B
:100880000A128A114F210A128A117108FB0070089E
:10089000FA000A128A11DB200A128A117808303E07
:1008A00083120313A4002408AC002C08A3002B0817
:1008B00084002308831380000130A3002308AB07C2
:1008C000FF30A3002308A807280A031D682C692C01
:1008D000272C0130A007FF30200784000A128A115C
:1008E0000D200A128A11A3002308AC002C08031D56
:1008F0007A2C7B2CA02B2B0884008313800108000A
:100900008316031388018701F030860083120313D6
:100910008801870186010A128A1134220A128A117B
:100920000A128A1551270A128A11F401F40A0130B9
:100930000A128A11E2210A128A110B30F500803066
:10094000F6000A128A15D0270A128A110A128A1191
:1009500093210A128A110A128A1551270A128A1142
:10096000023083120313AD002D08F40001300A1287
:100970008A11E2210A128A112230F5008030F60035
:100980000A128A15D0270A128A110830831203131B
:10099000AD002D08F40002300A128A11E2210A1279
:1009A0008A116430F5008030F6000A128A15D027CB
:1009B0000A128A110A128A1541270A128A11CD2FAA
:1009C0000A128A11F6220A128A1183120313AD0049
:1009D000AE012D08C7002E08C80082308312031311
:1009E000AE00DD30AD00AD0BF32CAE0BF32C64305C
:1009F00083120313470648040319FF2C002DCA2E47
:100A00002330470648040319062D072DCA2E2A3025
:100A10004706480403190D2D0E2DCA2E4B084C0411
:100A2000031D132D142D5B2D0A128A1578270A1227
:100A30008A11831203134808DA004708D9005A08BC
:100A4000CE005908CD000830AD002D08F40002306A
:100A50000A128A11E2210A128A116230F5008030EE
:100A6000F6000A128A15D0270A128A11033083125F
:100A70000313AF008A30AE005530AD00AD0B3E2DF4
:100A8000AE0B3E2DAF0B3E2D013083120313CB076F
:100A90000318CC0A0030CC074630AD002D08A0006A
:100AA0004E08A2004D08A10033300A128A11982383
:100AB0000A128A11CA2E4B034C04031D602D612DAE
:100AC000BB2D0A128A1578270A128A118312031382
:100AD0004808D4004708D3005A08F1005908F0002C
:100AE0000A30F2000030F3000A128A15AB270A120E
:100AF0008A118312031347087007CD0048080318B2
:100B0000480A7107CE000930AD002D08F40002300C
:100B10000A128A11E2210A128A116230F50080302D
:100B2000F6000A128A15D0270A128A11033083129E
:100B30000313AF008A30AE005530AD00AD0B9E2DD3
:100B4000AE0B9E2DAF0B9E2D013083120313CB07EE
:100B50000318CC0A0030CC074630AD002D08A000A9
:100B60004E08A2004D08A10033300A128A119823C2
:100B70000A128A11CA2E02304B064C04031DC12DE5
:100B8000C22D372E0A128A1578270A128A1183126B
:100B900003134808D2004708D1005A08F100590849
:100BA000F0006430F2000030F3000A128A15AB271F
:100BB0000A128A11700883120313AD007108AE0087
:100BC0005408F1005308F0000A30F2000030F3003E
:100BD0000A128A15AB270A128A11700883120313AE
:100BE0002D07AF0071080318710A2E07B0004708DF
:100BF0002F07CD0048080318480A3007CE000A30F6
:100C0000AD002D08F40002300A128A11E2210A1206
:100C10008A116230F5008030F6000A128A15D0275A
:100C20000A128A11033083120313AF008A30AE0018
:100C30005530AD00AD0B1A2EAE0B1A2EAF0B1A2E7F
:100C4000013083120313CB070318CC0A0030CC0702
:100C50004630AD002D08A0004E08A2004D08A100AE
:100C600033300A128A1198230A128A11CA2E0330CD
:100C70004B064C04031D3D2E3E2ECA2E0A128A1529
:100C800078270A128A11831203134808D0004708F4
:100C9000CF005A08F1005908F000E830F2000330A4
:100CA000F3000A128A15AB270A128A117008831200
:100CB0000313AD007108AE005408F1005308F000B2
:100CC0006430F2000030F3000A128A15AB270A12D2
:100CD0008A117008831203132D07AF0071080318DF
:100CE000710A2E07B0005208F1005108F0000A30D6
:100CF000F2000030F3000A128A15AB270A128A119B
:100D00007008831203132F07B10071080318710ACA
:100D10003007B2004F083107CD0050080318500AC1
:100D20003207CE000B30AD002D08F40002300A125D
:100D30008A11E2210A128A116230F5008030F60031
:100D40000A128A15D0270A128A110330831203135C
:100D5000AF008A30AE005530AD00AD0BAD2EAE0BFE
:100D6000AD2EAF0BAD2E013083120313CB0703184A
:100D7000CC0A0030CC074630AD002D08A0004E084C
:100D8000A2004D08A10033300A128A1198230A12DA
:100D90008A11CA2E23308312031347064804031D09
:100DA000D22ED32EDE2E0A128A1578270A128A1125
:100DB00033300A128A1115210A128A112A3083123D
:100DC000031347064804031DE62EE72ECD2F0A1213
:100DD0008A1578270A128A11A930831203134D0647
:100DE0001C3003194E06031DF62EF72E442F01303A
:100DF000D5000030D6000A128A153D270A128A1142
:100E00000A128A1551270A128A1106308312031317
:100E1000AD002D08F40001300A128A11E2210A12F5
:100E20008A115930F5008030F6000A128A15D02751
:100E30000A128A11053083120313AD002D08F40045
:100E400002300A128A11E2210A128A115030F5008A
:100E50008030F6000A128A15D0270A128A110A1267
:100E60008A1545270A128A11243083120313AF0012
:100E70008330AE00CE30AD00AD0B3C2FAE0B3C2F1F
:100E8000AF0B3C2F0000CD2F0130D7070318D80A35
:100E90000030D807CB01CC010A128A1551270A125B
:100EA0008A11063083120313AD002D08F4000130BF
:100EB0000A128A11E2210A128A115930F500803093
:100EC000F6000A128A15D0270A128A1104308312FA
:100ED0000313AD002D08F40002300A128A11E2213A
:100EE0000A128A113130F5008030F6000A128A1594
:100EF000D0270A128A11063083120313AF00133071
:100F0000AE00AD30AD00AD0B832FAE0B832FAF0B1A
:100F1000832F831203135808803AFF0080307F022A
:100F2000031D942F033057020318972F982FC82FB3
:100F30000A128A1551270A128A11023083120313EA
:100F4000AD002D08F40001300A128A11E2210A12C4
:100F50008A112230F5008030F6000A128A15D02757
:100F60000A128A11083083120313AD002D08F40011
:100F700002300A128A11E2210A128A116430F50045
:100F80008030F6000A128A15D0270A128A11CD2F56
:100F90000A128A1191220A128A1183120313580825
:100FA000803AFF0080307F02031DD82F03305702A4
:100FB0000318DB2FDC2FE42F83120313550856048C
:100FC0000319E32FE42FE02C0A128A1100280A12D9
:100FD0008A1180200A128A11DB000A128A118120EC
:100FE0000A128A11DC008313493084005B300A1234
:100FF0008A1549270A128A1183010A128A11802C44
:101E7A0083120313871008008312031387140800C0
:101E8A00831203130714080064008001840A0406FD
:101E9A000319003404064A2F00300A128A159127C2
:101EAA000A128A1501300A128A1591270A128A150E
:101EBA00080001300A128A1591270A128A15083079
:101ECA000A128A1591270A128A15080001300A1285
:101EDA008A1591270A128A150C300A128A15912737
:101EEA000A128A1508008312031307158230F100BB
:101EFA00DD30F000F00B7F2FF10B7F2F842F831240
:101F0A00031307118230F100DD30F000F00B8B2F44
:101F1A00F10B8B2F902F0800F30083120313081183
:101F2A0073080A128A1182200A128A15831203136D
:101F3A0088150630F2003030F100F10BA22FF20BB7
:101F4A00A22F00008312031388110800F401F5017F
:101F5A00701CB02FB12FB72F7208F4070318F50AB7
:101F6A007308F50701300310F20DF30DFF3E031D50
:101F7A00B82F01300310F10CF00CFF3E031DBF2FE8
:101F8A0070087104031DCA2FCB2FAD2F7508F100FD
:101F9A007408F0000800F701F801EB2F77087507BD
:101FAA00840078080318780A7607FF000A128A1153
:101FBA0003200A128A150A128A11A4200A128A1503
:101FCA000130F7070318F80A0030F8077708750791
:101FDA00840078080318780A760783120313FF002F
:101FEA000A128A1103200A128A15003A031DFE2FCB
:061FFA00FF2FD32F0800A9
:04400E00F22FFF3F4F
:00000001FF
